{
    "_format": "hh-sol-artifact-1",
    "contractName": "WavePortal",
    "sourceName": "contracts/WavePortal.sol",
    "abi": [
        {
            "inputs": [
                {
                    "internalType": "address",
                    "name": "_vrfCoordinator",
                    "type": "address"
                },
                {
                    "internalType": "address",
                    "name": "_linkToken",
                    "type": "address"
                },
                {
                    "internalType": "bytes32",
                    "name": "_keyHash",
                    "type": "bytes32"
                },
                {
                    "internalType": "uint256",
                    "name": "_fee",
                    "type": "uint256"
                }
            ],
            "stateMutability": "payable",
            "type": "constructor"
        },
        {
            "anonymous": false,
            "inputs": [
                {
                    "indexed": true,
                    "internalType": "address",
                    "name": "from",
                    "type": "address"
                },
                {
                    "indexed": false,
                    "internalType": "uint256",
                    "name": "timestamp",
                    "type": "uint256"
                },
                {
                    "indexed": false,
                    "internalType": "string",
                    "name": "message",
                    "type": "string"
                },
                {
                    "indexed": false,
                    "internalType": "bool",
                    "name": "isWinner",
                    "type": "bool"
                }
            ],
            "name": "NewWave",
            "type": "event"
        },
        {
            "anonymous": false,
            "inputs": [
                {
                    "indexed": true,
                    "internalType": "bytes32",
                    "name": "requestId",
                    "type": "bytes32"
                }
            ],
            "name": "RandomNumberRequested",
            "type": "event"
        },
        {
            "anonymous": false,
            "inputs": [
                {
                    "indexed": false,
                    "internalType": "uint256",
                    "name": "result",
                    "type": "uint256"
                }
            ],
            "name": "RandomNumberSet",
            "type": "event"
        },
        {
            "inputs": [],
            "name": "getAllWaves",
            "outputs": [
                {
                    "components": [
                        {
                            "internalType": "address",
                            "name": "waver",
                            "type": "address"
                        },
                        {
                            "internalType": "string",
                            "name": "message",
                            "type": "string"
                        },
                        {
                            "internalType": "uint256",
                            "name": "timestamp",
                            "type": "uint256"
                        }
                    ],
                    "internalType": "struct WavePortal.Wave[]",
                    "name": "",
                    "type": "tuple[]"
                }
            ],
            "stateMutability": "view",
            "type": "function"
        },
        {
            "inputs": [],
            "name": "getTotalWaves",
            "outputs": [
                {
                    "internalType": "uint256",
                    "name": "",
                    "type": "uint256"
                }
            ],
            "stateMutability": "view",
            "type": "function"
        },
        {
            "inputs": [
                {
                    "internalType": "string",
                    "name": "_message",
                    "type": "string"
                }
            ],
            "name": "initializeWave",
            "outputs": [
                {
                    "internalType": "bytes32",
                    "name": "requestId",
                    "type": "bytes32"
                }
            ],
            "stateMutability": "nonpayable",
            "type": "function"
        },
        {
            "inputs": [
                {
                    "internalType": "address",
                    "name": "",
                    "type": "address"
                }
            ],
            "name": "lastWavedAt",
            "outputs": [
                {
                    "internalType": "uint256",
                    "name": "",
                    "type": "uint256"
                }
            ],
            "stateMutability": "view",
            "type": "function"
        },
        {
            "inputs": [
                {
                    "internalType": "address",
                    "name": "",
                    "type": "address"
                }
            ],
            "name": "messageFromSender",
            "outputs": [
                {
                    "internalType": "string",
                    "name": "",
                    "type": "string"
                }
            ],
            "stateMutability": "view",
            "type": "function"
        },
        {
            "inputs": [
                {
                    "internalType": "bytes32",
                    "name": "requestId",
                    "type": "bytes32"
                },
                {
                    "internalType": "uint256",
                    "name": "randomness",
                    "type": "uint256"
                }
            ],
            "name": "rawFulfillRandomness",
            "outputs": [],
            "stateMutability": "nonpayable",
            "type": "function"
        },
        {
            "inputs": [
                {
                    "internalType": "bytes32",
                    "name": "",
                    "type": "bytes32"
                }
            ],
            "name": "requestIdToSender",
            "outputs": [
                {
                    "internalType": "address",
                    "name": "",
                    "type": "address"
                }
            ],
            "stateMutability": "view",
            "type": "function"
        }
    ],
    "bytecode": "0x60c060405260405162001dbb38038062001dbb83398181016040528101906200002991906200020f565b83838173ffffffffffffffffffffffffffffffffffffffff1660a08173ffffffffffffffffffffffffffffffffffffffff1660601b815250508073ffffffffffffffffffffffffffffffffffffffff1660808173ffffffffffffffffffffffffffffffffffffffff1660601b815250505050620000e66040518060400160405280601981526020017f57652068617665206265656e20636f6e73747275637465642100000000000000815250620000fe60201b620006e01760201c565b816002819055508060038190555050505050620003d9565b6200019e81604051602401620001159190620002bc565b6040516020818303038152906040527f41304fac000000000000000000000000000000000000000000000000000000007bffffffffffffffffffffffffffffffffffffffffffffffffffffffff19166020820180517bffffffffffffffffffffffffffffffffffffffffffffffffffffffff8381831617835250505050620001a160201b60201c565b50565b60008151905060006a636f6e736f6c652e6c6f679050602083016000808483855afa5050505050565b600081519050620001db816200038b565b92915050565b600081519050620001f281620003a5565b92915050565b6000815190506200020981620003bf565b92915050565b600080600080608085870312156200022657600080fd5b60006200023687828801620001ca565b94505060206200024987828801620001ca565b93505060406200025c87828801620001e1565b92505060606200026f87828801620001f8565b91505092959194509250565b60006200028882620002e0565b620002948185620002eb565b9350620002a681856020860162000344565b620002b1816200037a565b840191505092915050565b60006020820190508181036000830152620002d881846200027b565b905092915050565b600081519050919050565b600082825260208201905092915050565b600062000309826200031a565b9050919050565b6000819050919050565b600073ffffffffffffffffffffffffffffffffffffffff82169050919050565b6000819050919050565b60005b838110156200036457808201518184015260208101905062000347565b8381111562000374576000848401525b50505050565b6000601f19601f8301169050919050565b6200039681620002fc565b8114620003a257600080fd5b50565b620003b08162000310565b8114620003bc57600080fd5b50565b620003ca816200033a565b8114620003d657600080fd5b50565b60805160601c60a05160601c6119a8620004136000396000818161026f01526108eb01526000818161048301526108af01526119a86000f3fe608060405234801561001057600080fd5b506004361061007d5760003560e01c80639a2cdc081161005b5780639a2cdc08146100fe578063a42a46631461011c578063bd43a9081461014c578063c369c22f1461016a5761007d565b80631237170614610082578063219c0eee146100b257806394985ddd146100e2575b600080fd5b61009c60048036038101906100979190610ea1565b61019a565b6040516100a991906114df565b60405180910390f35b6100cc60048036038101906100c79190610ef3565b61023a565b6040516100d991906113db565b60405180910390f35b6100fc60048036038101906100f79190610f1c565b61026d565b005b610106610309565b60405161011391906115a1565b60405180910390f35b61013660048036038101906101319190610ea1565b610313565b60405161014391906115a1565b60405180910390f35b61015461032b565b6040516101619190611434565b60405180910390f35b610184600480360381019061017f9190610f58565b61047c565b6040516101919190611456565b60405180910390f35b600660205280600052604060002060009150905080546101b9906117d2565b80601f01602080910402602001604051908101604052809291908181526020018280546101e5906117d2565b80156102325780601f1061020757610100808354040283529160200191610232565b820191906000526020600020905b81548152906001019060200180831161021557829003601f168201915b505050505081565b60076020528060005260406000206000915054906101000a900473ffffffffffffffffffffffffffffffffffffffff1681565b7f000000000000000000000000000000000000000000000000000000000000000073ffffffffffffffffffffffffffffffffffffffff163373ffffffffffffffffffffffffffffffffffffffff16146102fb576040517f08c379a00000000000000000000000000000000000000000000000000000000081526004016102f290611541565b60405180910390fd5b6103058282610779565b5050565b6000600154905090565b60056020528060005260406000206000915090505481565b60606004805480602002602001604051908101604052809291908181526020016000905b8282101561047357838290600052602060002090600302016040518060600160405290816000820160009054906101000a900473ffffffffffffffffffffffffffffffffffffffff1673ffffffffffffffffffffffffffffffffffffffff1673ffffffffffffffffffffffffffffffffffffffff1681526020016001820180546103d8906117d2565b80601f0160208091040260200160405190810160405280929190818152602001828054610404906117d2565b80156104515780601f1061042657610100808354040283529160200191610451565b820191906000526020600020905b81548152906001019060200180831161043457829003601f168201915b505050505081526020016002820154815250508152602001906001019061034f565b50505050905090565b60006003547f000000000000000000000000000000000000000000000000000000000000000073ffffffffffffffffffffffffffffffffffffffff166370a08231306040518263ffffffff1660e01b81526004016104da91906113db565b60206040518083038186803b1580156104f257600080fd5b505afa158015610506573d6000803e3d6000fd5b505050506040513d601f19601f8201168201806040525081019061052a9190610f99565b101561056b576040517f08c379a000000000000000000000000000000000000000000000000000000000815260040161056290611501565b60405180910390fd5b426078600560003373ffffffffffffffffffffffffffffffffffffffff1673ffffffffffffffffffffffffffffffffffffffff168152602001908152602001600020546105b891906116e8565b106105f8576040517f08c379a00000000000000000000000000000000000000000000000000000000081526004016105ef90611581565b60405180910390fd5b6106066002546003546108ab565b9050336007600083815260200190815260200160002060006101000a81548173ffffffffffffffffffffffffffffffffffffffff021916908373ffffffffffffffffffffffffffffffffffffffff16021790555081600660003373ffffffffffffffffffffffffffffffffffffffff1673ffffffffffffffffffffffffffffffffffffffff16815260200190815260200160002090805190602001906106ad929190610d2d565b50807f1f528edfe7e851f18127c23c0853d428822bcefe59219e6afb0c6f25ffe9d51060405160405180910390a2919050565b610776816040516024016106f491906114df565b6040516020818303038152906040527f41304fac000000000000000000000000000000000000000000000000000000007bffffffffffffffffffffffffffffffffffffffffffffffffffffffff19166020820180517bffffffffffffffffffffffffffffffffffffffffffffffffffffffff8381831617835250505050610a0a565b50565b6000600160648361078a9190611818565b61079491906116e8565b905060006007600085815260200190815260200160002060009054906101000a900473ffffffffffffffffffffffffffffffffffffffff1690506000600660008373ffffffffffffffffffffffffffffffffffffffff1673ffffffffffffffffffffffffffffffffffffffff168152602001908152602001600020805461081a906117d2565b80601f0160208091040260200160405190810160405280929190818152602001828054610846906117d2565b80156108935780601f1061086857610100808354040283529160200191610893565b820191906000526020600020905b81548152906001019060200180831161087657829003601f168201915b505050505090506108a48184610a33565b5050505050565b60007f000000000000000000000000000000000000000000000000000000000000000073ffffffffffffffffffffffffffffffffffffffff16634000aea07f00000000000000000000000000000000000000000000000000000000000000008486600060405160200161091f929190611471565b6040516020818303038152906040526040518463ffffffff1660e01b815260040161094c939291906113f6565b602060405180830381600087803b15801561096657600080fd5b505af115801561097a573d6000803e3d6000fd5b505050506040513d601f19601f8201168201806040525081019061099e9190610eca565b5060006109c08460003060008089815260200190815260200160002054610cbe565b90506001600080868152602001908152602001600020546109e191906116e8565b60008086815260200190815260200160002081905550610a018482610cfa565b91505092915050565b60008151905060006a636f6e736f6c652e6c6f679050602083016000808483855afa5050505050565b42600560003373ffffffffffffffffffffffffffffffffffffffff1673ffffffffffffffffffffffffffffffffffffffff168152602001908152602001600020819055506001806000828254610a8991906116e8565b92505081905550600460405180606001604052803373ffffffffffffffffffffffffffffffffffffffff16815260200184815260200142815250908060018154018082558091505060019003906000526020600020906003020160009091909190915060008201518160000160006101000a81548173ffffffffffffffffffffffffffffffffffffffff021916908373ffffffffffffffffffffffffffffffffffffffff1602179055506020820151816001019080519060200190610b4f929190610d2d565b50604082015181600201555050600060328211610c67576000655af3107a4000905047811115610bb4576040517f08c379a0000000000000000000000000000000000000000000000000000000008152600401610bab90611561565b60405180910390fd5b60003373ffffffffffffffffffffffffffffffffffffffff1682604051610bda906113c6565b60006040518083038185875af1925050503d8060008114610c17576040519150601f19603f3d011682016040523d82523d6000602084013e610c1c565b606091505b5050905080610c60576040517f08c379a0000000000000000000000000000000000000000000000000000000008152600401610c5790611521565b60405180910390fd5b6001925050505b3373ffffffffffffffffffffffffffffffffffffffff167f6d1607feb02544462392cd79bc9fc3cea2a1dd50600d5b503009b84ae27748ca428584604051610cb1939291906115bc565b60405180910390a2505050565b600084848484604051602001610cd7949392919061149a565b6040516020818303038152906040528051906020012060001c9050949350505050565b60008282604051602001610d0f92919061139a565b60405160208183030381529060405280519060200120905092915050565b828054610d39906117d2565b90600052602060002090601f016020900481019282610d5b5760008555610da2565b82601f10610d7457805160ff1916838001178555610da2565b82800160010185558215610da2579182015b82811115610da1578251825591602001919060010190610d86565b5b509050610daf9190610db3565b5090565b5b80821115610dcc576000816000905550600101610db4565b5090565b6000610de3610dde8461162b565b6115fa565b905082815260208101848484011115610dfb57600080fd5b610e06848285611790565b509392505050565b600081359050610e1d81611916565b92915050565b600081519050610e328161192d565b92915050565b600081359050610e4781611944565b92915050565b600082601f830112610e5e57600080fd5b8135610e6e848260208601610dd0565b91505092915050565b600081359050610e868161195b565b92915050565b600081519050610e9b8161195b565b92915050565b600060208284031215610eb357600080fd5b6000610ec184828501610e0e565b91505092915050565b600060208284031215610edc57600080fd5b6000610eea84828501610e23565b91505092915050565b600060208284031215610f0557600080fd5b6000610f1384828501610e38565b91505092915050565b60008060408385031215610f2f57600080fd5b6000610f3d85828601610e38565b9250506020610f4e85828601610e77565b9150509250929050565b600060208284031215610f6a57600080fd5b600082013567ffffffffffffffff811115610f8457600080fd5b610f9084828501610e4d565b91505092915050565b600060208284031215610fab57600080fd5b6000610fb984828501610e8c565b91505092915050565b6000610fce8383611315565b905092915050565b610fdf8161173e565b82525050565b610fee8161173e565b82525050565b6000610fff8261166b565b6110098185611699565b93508360208202850161101b8561165b565b8060005b8581101561105757848403895281516110388582610fc2565b94506110438361168c565b925060208a0199505060018101905061101f565b50829750879550505050505092915050565b61107281611750565b82525050565b6110818161175c565b82525050565b6110986110938261175c565b611804565b82525050565b60006110a982611676565b6110b381856116aa565b93506110c381856020860161179f565b6110cc81611905565b840191505092915050565b60006110e282611681565b6110ec81856116c6565b93506110fc81856020860161179f565b61110581611905565b840191505092915050565b600061111b82611681565b61112581856116d7565b935061113581856020860161179f565b61113e81611905565b840191505092915050565b6000611156602b836116d7565b91507f4e6f7420656e6f756768204c494e4b202d2066696c6c20636f6e74726163742060008301527f77697468206661756365740000000000000000000000000000000000000000006020830152604082019050919050565b60006111bc6027836116d7565b91507f4661696c656420746f207769746864726177206d6f6e65792066726f6d20636f60008301527f6e74726163742e000000000000000000000000000000000000000000000000006020830152604082019050919050565b6000611222601f836116d7565b91507f4f6e6c7920565246436f6f7264696e61746f722063616e2066756c66696c6c006000830152602082019050919050565b60006112626035836116d7565b91507f547279696e6720746f207769746864726177206d6f7265206d6f6e657920746860008301527f616e207468657920636f6e7472616374206861732e00000000000000000000006020830152604082019050919050565b60006112c86000836116bb565b9150600082019050919050565b60006112e2600e836116d7565b91507f576169742032206d696e757465730000000000000000000000000000000000006000830152602082019050919050565b600060608301600083015161132d6000860182610fd6565b506020830151848203602086015261134582826110d7565b915050604083015161135a6040860182611365565b508091505092915050565b61136e81611786565b82525050565b61137d81611786565b82525050565b61139461138f82611786565b61180e565b82525050565b60006113a68285611087565b6020820191506113b68284611383565b6020820191508190509392505050565b60006113d1826112bb565b9150819050919050565b60006020820190506113f06000830184610fe5565b92915050565b600060608201905061140b6000830186610fe5565b6114186020830185611374565b818103604083015261142a818461109e565b9050949350505050565b6000602082019050818103600083015261144e8184610ff4565b905092915050565b600060208201905061146b6000830184611078565b92915050565b60006040820190506114866000830185611078565b6114936020830184611374565b9392505050565b60006080820190506114af6000830187611078565b6114bc6020830186611374565b6114c96040830185610fe5565b6114d66060830184611374565b95945050505050565b600060208201905081810360008301526114f98184611110565b905092915050565b6000602082019050818103600083015261151a81611149565b9050919050565b6000602082019050818103600083015261153a816111af565b9050919050565b6000602082019050818103600083015261155a81611215565b9050919050565b6000602082019050818103600083015261157a81611255565b9050919050565b6000602082019050818103600083015261159a816112d5565b9050919050565b60006020820190506115b66000830184611374565b92915050565b60006060820190506115d16000830186611374565b81810360208301526115e38185611110565b90506115f26040830184611069565b949350505050565b6000604051905081810181811067ffffffffffffffff82111715611621576116206118d6565b5b8060405250919050565b600067ffffffffffffffff821115611646576116456118d6565b5b601f19601f8301169050602081019050919050565b6000819050602082019050919050565b600081519050919050565b600081519050919050565b600081519050919050565b6000602082019050919050565b600082825260208201905092915050565b600082825260208201905092915050565b600081905092915050565b600082825260208201905092915050565b600082825260208201905092915050565b60006116f382611786565b91506116fe83611786565b9250827fffffffffffffffffffffffffffffffffffffffffffffffffffffffffffffffff0382111561173357611732611849565b5b828201905092915050565b600061174982611766565b9050919050565b60008115159050919050565b6000819050919050565b600073ffffffffffffffffffffffffffffffffffffffff82169050919050565b6000819050919050565b82818337600083830152505050565b60005b838110156117bd5780820151818401526020810190506117a2565b838111156117cc576000848401525b50505050565b600060028204905060018216806117ea57607f821691505b602082108114156117fe576117fd6118a7565b5b50919050565b6000819050919050565b6000819050919050565b600061182382611786565b915061182e83611786565b92508261183e5761183d611878565b5b828206905092915050565b7f4e487b7100000000000000000000000000000000000000000000000000000000600052601160045260246000fd5b7f4e487b7100000000000000000000000000000000000000000000000000000000600052601260045260246000fd5b7f4e487b7100000000000000000000000000000000000000000000000000000000600052602260045260246000fd5b7f4e487b7100000000000000000000000000000000000000000000000000000000600052604160045260246000fd5b6000601f19601f8301169050919050565b61191f8161173e565b811461192a57600080fd5b50565b61193681611750565b811461194157600080fd5b50565b61194d8161175c565b811461195857600080fd5b50565b61196481611786565b811461196f57600080fd5b5056fea2646970667358221220bbe44b75bcc3f93a4357d5e8e1e3f1e43a1151e7cab1de1072cb7b0f387738a664736f6c63430008000033",
    "linkReferences": {},
    "deployedLinkReferences": {}
}