{
    "_format": "hh-sol-artifact-1",
    "contractName": "WavePortal",
    "sourceName": "contracts/WavePortal.sol",
    "abi": [
        {
            "inputs": [
                {
                    "internalType": "address",
                    "name": "_vrfCoordinator",
                    "type": "address"
                },
                {
                    "internalType": "address",
                    "name": "_linkToken",
                    "type": "address"
                },
                {
                    "internalType": "bytes32",
                    "name": "_keyHash",
                    "type": "bytes32"
                },
                {
                    "internalType": "uint256",
                    "name": "_fee",
                    "type": "uint256"
                }
            ],
            "stateMutability": "payable",
            "type": "constructor"
        },
        {
            "anonymous": false,
            "inputs": [
                {
                    "indexed": true,
                    "internalType": "address",
                    "name": "from",
                    "type": "address"
                },
                {
                    "indexed": false,
                    "internalType": "uint256",
                    "name": "timestamp",
                    "type": "uint256"
                },
                {
                    "indexed": false,
                    "internalType": "string",
                    "name": "message",
                    "type": "string"
                },
                {
                    "indexed": false,
                    "internalType": "uint256",
                    "name": "random",
                    "type": "uint256"
                }
            ],
            "name": "NewWave",
            "type": "event"
        },
        {
            "anonymous": false,
            "inputs": [
                {
                    "indexed": true,
                    "internalType": "address",
                    "name": "previousOwner",
                    "type": "address"
                },
                {
                    "indexed": true,
                    "internalType": "address",
                    "name": "newOwner",
                    "type": "address"
                }
            ],
            "name": "OwnershipTransferred",
            "type": "event"
        },
        {
            "anonymous": false,
            "inputs": [
                {
                    "indexed": true,
                    "internalType": "bytes32",
                    "name": "requestId",
                    "type": "bytes32"
                }
            ],
            "name": "RandomNumberRequested",
            "type": "event"
        },
        {
            "inputs": [],
            "name": "getAllWaves",
            "outputs": [
                {
                    "components": [
                        {
                            "internalType": "address",
                            "name": "waver",
                            "type": "address"
                        },
                        {
                            "internalType": "string",
                            "name": "message",
                            "type": "string"
                        },
                        {
                            "internalType": "uint256",
                            "name": "timestamp",
                            "type": "uint256"
                        }
                    ],
                    "internalType": "struct WavePortal.Wave[]",
                    "name": "",
                    "type": "tuple[]"
                }
            ],
            "stateMutability": "view",
            "type": "function"
        },
        {
            "inputs": [],
            "name": "getTotalWaves",
            "outputs": [
                {
                    "internalType": "uint256",
                    "name": "",
                    "type": "uint256"
                }
            ],
            "stateMutability": "view",
            "type": "function"
        },
        {
            "inputs": [
                {
                    "internalType": "string",
                    "name": "_message",
                    "type": "string"
                }
            ],
            "name": "initializeWave",
            "outputs": [],
            "stateMutability": "nonpayable",
            "type": "function"
        },
        {
            "inputs": [
                {
                    "internalType": "address",
                    "name": "",
                    "type": "address"
                }
            ],
            "name": "lastWavedAt",
            "outputs": [
                {
                    "internalType": "uint256",
                    "name": "",
                    "type": "uint256"
                }
            ],
            "stateMutability": "view",
            "type": "function"
        },
        {
            "inputs": [
                {
                    "internalType": "address",
                    "name": "",
                    "type": "address"
                }
            ],
            "name": "messageFromSender",
            "outputs": [
                {
                    "internalType": "string",
                    "name": "",
                    "type": "string"
                }
            ],
            "stateMutability": "view",
            "type": "function"
        },
        {
            "inputs": [],
            "name": "owner",
            "outputs": [
                {
                    "internalType": "address",
                    "name": "",
                    "type": "address"
                }
            ],
            "stateMutability": "view",
            "type": "function"
        },
        {
            "inputs": [
                {
                    "internalType": "bytes32",
                    "name": "requestId",
                    "type": "bytes32"
                },
                {
                    "internalType": "uint256",
                    "name": "randomness",
                    "type": "uint256"
                }
            ],
            "name": "rawFulfillRandomness",
            "outputs": [],
            "stateMutability": "nonpayable",
            "type": "function"
        },
        {
            "inputs": [],
            "name": "renounceOwnership",
            "outputs": [],
            "stateMutability": "nonpayable",
            "type": "function"
        },
        {
            "inputs": [
                {
                    "internalType": "bytes32",
                    "name": "",
                    "type": "bytes32"
                }
            ],
            "name": "requestIdToSender",
            "outputs": [
                {
                    "internalType": "address",
                    "name": "",
                    "type": "address"
                }
            ],
            "stateMutability": "view",
            "type": "function"
        },
        {
            "inputs": [],
            "name": "resetWaves",
            "outputs": [],
            "stateMutability": "nonpayable",
            "type": "function"
        },
        {
            "inputs": [
                {
                    "internalType": "address",
                    "name": "newOwner",
                    "type": "address"
                }
            ],
            "name": "transferOwnership",
            "outputs": [],
            "stateMutability": "nonpayable",
            "type": "function"
        }
    ],
    "bytecode": "0x60c0604052604051620020eb380380620020eb8339818101604052810190620000299190620001e6565b83838173ffffffffffffffffffffffffffffffffffffffff1660a08173ffffffffffffffffffffffffffffffffffffffff1660601b815250508073ffffffffffffffffffffffffffffffffffffffff1660808173ffffffffffffffffffffffffffffffffffffffff1660601b815250505050620000bb620000af620000d360201b60201c565b620000db60201b60201c565b816003819055508060048190555050505050620002e8565b600033905090565b6000600160009054906101000a900473ffffffffffffffffffffffffffffffffffffffff16905081600160006101000a81548173ffffffffffffffffffffffffffffffffffffffff021916908373ffffffffffffffffffffffffffffffffffffffff1602179055508173ffffffffffffffffffffffffffffffffffffffff168173ffffffffffffffffffffffffffffffffffffffff167f8be0079c531659141344cd1fd0a4f28419497f9722a3daafe3b4186f6b6457e060405160405180910390a35050565b600081519050620001b2816200029a565b92915050565b600081519050620001c981620002b4565b92915050565b600081519050620001e081620002ce565b92915050565b60008060008060808587031215620001fd57600080fd5b60006200020d87828801620001a1565b94505060206200022087828801620001a1565b93505060406200023387828801620001b8565b92505060606200024687828801620001cf565b91505092959194509250565b60006200025f8262000270565b9050919050565b6000819050919050565b600073ffffffffffffffffffffffffffffffffffffffff82169050919050565b6000819050919050565b620002a58162000252565b8114620002b157600080fd5b50565b620002bf8162000266565b8114620002cb57600080fd5b50565b620002d98162000290565b8114620002e557600080fd5b50565b60805160601c60a05160601c611dc9620003226000396000818161041b0152610bc401526000818161062d0152610b880152611dc96000f3fe608060405234801561001057600080fd5b50600436106100a95760003560e01c806394985ddd1161007157806394985ddd146101405780639a2cdc081461015c578063a42a46631461017a578063bd43a908146101aa578063c369c22f146101c8578063f2fde38b146101e4576100a9565b806312371706146100ae578063219c0eee146100de5780633f0402141461010e578063715018a6146101185780638da5cb5b14610122575b600080fd5b6100c860048036038101906100c39190611206565b610200565b6040516100d591906118c0565b60405180910390f35b6100f860048036038101906100f39190611258565b6102a0565b60405161010591906117d7565b60405180910390f35b6101166102d3565b005b610120610367565b005b61012a6103ef565b60405161013791906117d7565b60405180910390f35b61015a60048036038101906101559190611281565b610419565b005b6101646104b5565b60405161017191906119c2565b60405180910390f35b610194600480360381019061018f9190611206565b6104bf565b6040516101a191906119c2565b60405180910390f35b6101b26104d7565b6040516101bf9190611830565b60405180910390f35b6101e260048036038101906101dd91906112bd565b610628565b005b6101fe60048036038101906101f99190611206565b61088b565b005b6007602052806000526040600020600091509050805461021f90611bf3565b80601f016020809104026020016040519081016040528092919081815260200182805461024b90611bf3565b80156102985780601f1061026d57610100808354040283529160200191610298565b820191906000526020600020905b81548152906001019060200180831161027b57829003601f168201915b505050505081565b60086020528060005260406000206000915054906101000a900473ffffffffffffffffffffffffffffffffffffffff1681565b6102db610983565b73ffffffffffffffffffffffffffffffffffffffff166102f96103ef565b73ffffffffffffffffffffffffffffffffffffffff161461034f576040517f08c379a000000000000000000000000000000000000000000000000000000000815260040161034690611942565b60405180910390fd5b6005600061035d9190610fd8565b6000600281905550565b61036f610983565b73ffffffffffffffffffffffffffffffffffffffff1661038d6103ef565b73ffffffffffffffffffffffffffffffffffffffff16146103e3576040517f08c379a00000000000000000000000000000000000000000000000000000000081526004016103da90611942565b60405180910390fd5b6103ed600061098b565b565b6000600160009054906101000a900473ffffffffffffffffffffffffffffffffffffffff16905090565b7f000000000000000000000000000000000000000000000000000000000000000073ffffffffffffffffffffffffffffffffffffffff163373ffffffffffffffffffffffffffffffffffffffff16146104a7576040517f08c379a000000000000000000000000000000000000000000000000000000000815260040161049e90611962565b60405180910390fd5b6104b18282610a51565b5050565b6000600254905090565b60066020528060005260406000206000915090505481565b60606005805480602002602001604051908101604052809291908181526020016000905b8282101561061f57838290600052602060002090600302016040518060600160405290816000820160009054906101000a900473ffffffffffffffffffffffffffffffffffffffff1673ffffffffffffffffffffffffffffffffffffffff1673ffffffffffffffffffffffffffffffffffffffff16815260200160018201805461058490611bf3565b80601f01602080910402602001604051908101604052809291908181526020018280546105b090611bf3565b80156105fd5780601f106105d2576101008083540402835291602001916105fd565b820191906000526020600020905b8154815290600101906020018083116105e057829003601f168201915b50505050508152602001600282015481525050815260200190600101906104fb565b50505050905090565b6004547f000000000000000000000000000000000000000000000000000000000000000073ffffffffffffffffffffffffffffffffffffffff166370a08231306040518263ffffffff1660e01b815260040161068491906117d7565b60206040518083038186803b15801561069c57600080fd5b505afa1580156106b0573d6000803e3d6000fd5b505050506040513d601f19601f820116820180604052508101906106d491906112fe565b1015610715576040517f08c379a000000000000000000000000000000000000000000000000000000000815260040161070c90611902565b60405180910390fd5b426078600660003373ffffffffffffffffffffffffffffffffffffffff1673ffffffffffffffffffffffffffffffffffffffff168152602001908152602001600020546107629190611b09565b106107a2576040517f08c379a0000000000000000000000000000000000000000000000000000000008152600401610799906119a2565b60405180910390fd5b60006107b2600354600454610b84565b9050336008600083815260200190815260200160002060006101000a81548173ffffffffffffffffffffffffffffffffffffffff021916908373ffffffffffffffffffffffffffffffffffffffff16021790555081600760003373ffffffffffffffffffffffffffffffffffffffff1673ffffffffffffffffffffffffffffffffffffffff1681526020019081526020016000209080519060200190610859929190610ffc565b50807f1f528edfe7e851f18127c23c0853d428822bcefe59219e6afb0c6f25ffe9d51060405160405180910390a25050565b610893610983565b73ffffffffffffffffffffffffffffffffffffffff166108b16103ef565b73ffffffffffffffffffffffffffffffffffffffff1614610907576040517f08c379a00000000000000000000000000000000000000000000000000000000081526004016108fe90611942565b60405180910390fd5b600073ffffffffffffffffffffffffffffffffffffffff168173ffffffffffffffffffffffffffffffffffffffff161415610977576040517f08c379a000000000000000000000000000000000000000000000000000000000815260040161096e906118e2565b60405180910390fd5b6109808161098b565b50565b600033905090565b6000600160009054906101000a900473ffffffffffffffffffffffffffffffffffffffff16905081600160006101000a81548173ffffffffffffffffffffffffffffffffffffffff021916908373ffffffffffffffffffffffffffffffffffffffff1602179055508173ffffffffffffffffffffffffffffffffffffffff168173ffffffffffffffffffffffffffffffffffffffff167f8be0079c531659141344cd1fd0a4f28419497f9722a3daafe3b4186f6b6457e060405160405180910390a35050565b60006001606483610a629190611c39565b610a6c9190611b09565b905060006008600085815260200190815260200160002060009054906101000a900473ffffffffffffffffffffffffffffffffffffffff1690506000600760008373ffffffffffffffffffffffffffffffffffffffff1673ffffffffffffffffffffffffffffffffffffffff1681526020019081526020016000208054610af290611bf3565b80601f0160208091040260200160405190810160405280929190818152602001828054610b1e90611bf3565b8015610b6b5780601f10610b4057610100808354040283529160200191610b6b565b820191906000526020600020905b815481529060010190602001808311610b4e57829003601f168201915b50505050509050610b7d828285610ce3565b5050505050565b60007f000000000000000000000000000000000000000000000000000000000000000073ffffffffffffffffffffffffffffffffffffffff16634000aea07f000000000000000000000000000000000000000000000000000000000000000084866000604051602001610bf8929190611852565b6040516020818303038152906040526040518463ffffffff1660e01b8152600401610c25939291906117f2565b602060405180830381600087803b158015610c3f57600080fd5b505af1158015610c53573d6000803e3d6000fd5b505050506040513d601f19601f82011682018060405250810190610c77919061122f565b506000610c998460003060008089815260200190815260200160002054610f69565b9050600160008086815260200190815260200160002054610cba9190611b09565b60008086815260200190815260200160002081905550610cda8482610fa5565b91505092915050565b42600660008573ffffffffffffffffffffffffffffffffffffffff1673ffffffffffffffffffffffffffffffffffffffff16815260200190815260200160002081905550600160026000828254610d3a9190611b09565b92505081905550600560405180606001604052808573ffffffffffffffffffffffffffffffffffffffff16815260200184815260200142815250908060018154018082558091505060019003906000526020600020906003020160009091909190915060008201518160000160006101000a81548173ffffffffffffffffffffffffffffffffffffffff021916908373ffffffffffffffffffffffffffffffffffffffff1602179055506020820151816001019080519060200190610e00929190610ffc565b5060408201518160020155505060328111610f12576000655af3107a4000905047811115610e63576040517f08c379a0000000000000000000000000000000000000000000000000000000008152600401610e5a90611982565b60405180910390fd5b60008473ffffffffffffffffffffffffffffffffffffffff1682604051610e89906117c2565b60006040518083038185875af1925050503d8060008114610ec6576040519150601f19603f3d011682016040523d82523d6000602084013e610ecb565b606091505b5050905080610f0f576040517f08c379a0000000000000000000000000000000000000000000000000000000008152600401610f0690611922565b60405180910390fd5b50505b8273ffffffffffffffffffffffffffffffffffffffff167f3e113f502ff7c90598a6182f87f699985e9c373d089ba56a11d88a26891c5c8b428484604051610f5c939291906119dd565b60405180910390a2505050565b600084848484604051602001610f82949392919061187b565b6040516020818303038152906040528051906020012060001c9050949350505050565b60008282604051602001610fba929190611796565b60405160208183030381529060405280519060200120905092915050565b5080546000825560030290600052602060002090810190610ff99190611082565b50565b82805461100890611bf3565b90600052602060002090601f01602090048101928261102a5760008555611071565b82601f1061104357805160ff1916838001178555611071565b82800160010185558215611071579182015b82811115611070578251825591602001919060010190611055565b5b50905061107e91906110d8565b5090565b5b808211156110d457600080820160006101000a81549073ffffffffffffffffffffffffffffffffffffffff02191690556001820160006110c391906110f5565b600282016000905550600301611083565b5090565b5b808211156110f15760008160009055506001016110d9565b5090565b50805461110190611bf3565b6000825580601f106111135750611132565b601f01602090049060005260206000209081019061113191906110d8565b5b50565b600061114861114384611a4c565b611a1b565b90508281526020810184848401111561116057600080fd5b61116b848285611bb1565b509392505050565b60008135905061118281611d37565b92915050565b60008151905061119781611d4e565b92915050565b6000813590506111ac81611d65565b92915050565b600082601f8301126111c357600080fd5b81356111d3848260208601611135565b91505092915050565b6000813590506111eb81611d7c565b92915050565b60008151905061120081611d7c565b92915050565b60006020828403121561121857600080fd5b600061122684828501611173565b91505092915050565b60006020828403121561124157600080fd5b600061124f84828501611188565b91505092915050565b60006020828403121561126a57600080fd5b60006112788482850161119d565b91505092915050565b6000806040838503121561129457600080fd5b60006112a28582860161119d565b92505060206112b3858286016111dc565b9150509250929050565b6000602082840312156112cf57600080fd5b600082013567ffffffffffffffff8111156112e957600080fd5b6112f5848285016111b2565b91505092915050565b60006020828403121561131057600080fd5b600061131e848285016111f1565b91505092915050565b60006113338383611711565b905092915050565b61134481611b5f565b82525050565b61135381611b5f565b82525050565b600061136482611a8c565b61136e8185611aba565b93508360208202850161138085611a7c565b8060005b858110156113bc578484038952815161139d8582611327565b94506113a883611aad565b925060208a01995050600181019050611384565b50829750879550505050505092915050565b6113d781611b7d565b82525050565b6113ee6113e982611b7d565b611c25565b82525050565b60006113ff82611a97565b6114098185611acb565b9350611419818560208601611bc0565b61142281611d26565b840191505092915050565b600061143882611aa2565b6114428185611ae7565b9350611452818560208601611bc0565b61145b81611d26565b840191505092915050565b600061147182611aa2565b61147b8185611af8565b935061148b818560208601611bc0565b61149481611d26565b840191505092915050565b60006114ac602683611af8565b91507f4f776e61626c653a206e6577206f776e657220697320746865207a65726f206160008301527f64647265737300000000000000000000000000000000000000000000000000006020830152604082019050919050565b6000611512602b83611af8565b91507f4e6f7420656e6f756768204c494e4b202d2066696c6c20636f6e74726163742060008301527f77697468206661756365740000000000000000000000000000000000000000006020830152604082019050919050565b6000611578602783611af8565b91507f4661696c656420746f207769746864726177206d6f6e65792066726f6d20636f60008301527f6e74726163742e000000000000000000000000000000000000000000000000006020830152604082019050919050565b60006115de602083611af8565b91507f4f776e61626c653a2063616c6c6572206973206e6f7420746865206f776e65726000830152602082019050919050565b600061161e601f83611af8565b91507f4f6e6c7920565246436f6f7264696e61746f722063616e2066756c66696c6c006000830152602082019050919050565b600061165e603583611af8565b91507f547279696e6720746f207769746864726177206d6f7265206d6f6e657920746860008301527f616e207468657920636f6e7472616374206861732e00000000000000000000006020830152604082019050919050565b60006116c4600083611adc565b9150600082019050919050565b60006116de600e83611af8565b91507f576169742032206d696e757465730000000000000000000000000000000000006000830152602082019050919050565b6000606083016000830151611729600086018261133b565b5060208301518482036020860152611741828261142d565b91505060408301516117566040860182611761565b508091505092915050565b61176a81611ba7565b82525050565b61177981611ba7565b82525050565b61179061178b82611ba7565b611c2f565b82525050565b60006117a282856113dd565b6020820191506117b2828461177f565b6020820191508190509392505050565b60006117cd826116b7565b9150819050919050565b60006020820190506117ec600083018461134a565b92915050565b6000606082019050611807600083018661134a565b6118146020830185611770565b818103604083015261182681846113f4565b9050949350505050565b6000602082019050818103600083015261184a8184611359565b905092915050565b600060408201905061186760008301856113ce565b6118746020830184611770565b9392505050565b600060808201905061189060008301876113ce565b61189d6020830186611770565b6118aa604083018561134a565b6118b76060830184611770565b95945050505050565b600060208201905081810360008301526118da8184611466565b905092915050565b600060208201905081810360008301526118fb8161149f565b9050919050565b6000602082019050818103600083015261191b81611505565b9050919050565b6000602082019050818103600083015261193b8161156b565b9050919050565b6000602082019050818103600083015261195b816115d1565b9050919050565b6000602082019050818103600083015261197b81611611565b9050919050565b6000602082019050818103600083015261199b81611651565b9050919050565b600060208201905081810360008301526119bb816116d1565b9050919050565b60006020820190506119d76000830184611770565b92915050565b60006060820190506119f26000830186611770565b8181036020830152611a048185611466565b9050611a136040830184611770565b949350505050565b6000604051905081810181811067ffffffffffffffff82111715611a4257611a41611cf7565b5b8060405250919050565b600067ffffffffffffffff821115611a6757611a66611cf7565b5b601f19601f8301169050602081019050919050565b6000819050602082019050919050565b600081519050919050565b600081519050919050565b600081519050919050565b6000602082019050919050565b600082825260208201905092915050565b600082825260208201905092915050565b600081905092915050565b600082825260208201905092915050565b600082825260208201905092915050565b6000611b1482611ba7565b9150611b1f83611ba7565b9250827fffffffffffffffffffffffffffffffffffffffffffffffffffffffffffffffff03821115611b5457611b53611c6a565b5b828201905092915050565b6000611b6a82611b87565b9050919050565b60008115159050919050565b6000819050919050565b600073ffffffffffffffffffffffffffffffffffffffff82169050919050565b6000819050919050565b82818337600083830152505050565b60005b83811015611bde578082015181840152602081019050611bc3565b83811115611bed576000848401525b50505050565b60006002820490506001821680611c0b57607f821691505b60208210811415611c1f57611c1e611cc8565b5b50919050565b6000819050919050565b6000819050919050565b6000611c4482611ba7565b9150611c4f83611ba7565b925082611c5f57611c5e611c99565b5b828206905092915050565b7f4e487b7100000000000000000000000000000000000000000000000000000000600052601160045260246000fd5b7f4e487b7100000000000000000000000000000000000000000000000000000000600052601260045260246000fd5b7f4e487b7100000000000000000000000000000000000000000000000000000000600052602260045260246000fd5b7f4e487b7100000000000000000000000000000000000000000000000000000000600052604160045260246000fd5b6000601f19601f8301169050919050565b611d4081611b5f565b8114611d4b57600080fd5b50565b611d5781611b71565b8114611d6257600080fd5b50565b611d6e81611b7d565b8114611d7957600080fd5b50565b611d8581611ba7565b8114611d9057600080fd5b5056fea2646970667358221220525f753ae09f9f85e3bbe2d3a73a02e975f404977eb54f17438cd9852666247164736f6c63430008000033",
    "linkReferences": {},
    "deployedLinkReferences": {}
}