{
    "_format": "hh-sol-artifact-1",
    "contractName": "WavePortal",
    "sourceName": "contracts/WavePortal.sol",
    "abi": [
        {
            "inputs": [
                {
                    "internalType": "address",
                    "name": "_vrfCoordinator",
                    "type": "address"
                },
                {
                    "internalType": "address",
                    "name": "_linkToken",
                    "type": "address"
                },
                {
                    "internalType": "bytes32",
                    "name": "_keyHash",
                    "type": "bytes32"
                },
                {
                    "internalType": "uint256",
                    "name": "_fee",
                    "type": "uint256"
                }
            ],
            "stateMutability": "payable",
            "type": "constructor"
        },
        {
            "anonymous": false,
            "inputs": [
                {
                    "indexed": true,
                    "internalType": "address",
                    "name": "from",
                    "type": "address"
                },
                {
                    "indexed": false,
                    "internalType": "uint256",
                    "name": "timestamp",
                    "type": "uint256"
                },
                {
                    "indexed": false,
                    "internalType": "string",
                    "name": "message",
                    "type": "string"
                },
                {
                    "indexed": false,
                    "internalType": "bool",
                    "name": "isWinner",
                    "type": "bool"
                }
            ],
            "name": "NewWave",
            "type": "event"
        },
        {
            "anonymous": false,
            "inputs": [
                {
                    "indexed": true,
                    "internalType": "address",
                    "name": "previousOwner",
                    "type": "address"
                },
                {
                    "indexed": true,
                    "internalType": "address",
                    "name": "newOwner",
                    "type": "address"
                }
            ],
            "name": "OwnershipTransferred",
            "type": "event"
        },
        {
            "anonymous": false,
            "inputs": [
                {
                    "indexed": true,
                    "internalType": "bytes32",
                    "name": "requestId",
                    "type": "bytes32"
                }
            ],
            "name": "RandomNumberRequested",
            "type": "event"
        },
        {
            "inputs": [],
            "name": "getAllWaves",
            "outputs": [
                {
                    "components": [
                        {
                            "internalType": "address",
                            "name": "waver",
                            "type": "address"
                        },
                        {
                            "internalType": "string",
                            "name": "message",
                            "type": "string"
                        },
                        {
                            "internalType": "uint256",
                            "name": "timestamp",
                            "type": "uint256"
                        }
                    ],
                    "internalType": "struct WavePortal.Wave[]",
                    "name": "",
                    "type": "tuple[]"
                }
            ],
            "stateMutability": "view",
            "type": "function"
        },
        {
            "inputs": [],
            "name": "getTotalWaves",
            "outputs": [
                {
                    "internalType": "uint256",
                    "name": "",
                    "type": "uint256"
                }
            ],
            "stateMutability": "view",
            "type": "function"
        },
        {
            "inputs": [
                {
                    "internalType": "string",
                    "name": "_message",
                    "type": "string"
                }
            ],
            "name": "initializeWave",
            "outputs": [
                {
                    "internalType": "bytes32",
                    "name": "requestId",
                    "type": "bytes32"
                }
            ],
            "stateMutability": "nonpayable",
            "type": "function"
        },
        {
            "inputs": [
                {
                    "internalType": "address",
                    "name": "",
                    "type": "address"
                }
            ],
            "name": "lastWavedAt",
            "outputs": [
                {
                    "internalType": "uint256",
                    "name": "",
                    "type": "uint256"
                }
            ],
            "stateMutability": "view",
            "type": "function"
        },
        {
            "inputs": [
                {
                    "internalType": "address",
                    "name": "",
                    "type": "address"
                }
            ],
            "name": "messageFromSender",
            "outputs": [
                {
                    "internalType": "string",
                    "name": "",
                    "type": "string"
                }
            ],
            "stateMutability": "view",
            "type": "function"
        },
        {
            "inputs": [],
            "name": "owner",
            "outputs": [
                {
                    "internalType": "address",
                    "name": "",
                    "type": "address"
                }
            ],
            "stateMutability": "view",
            "type": "function"
        },
        {
            "inputs": [
                {
                    "internalType": "bytes32",
                    "name": "requestId",
                    "type": "bytes32"
                },
                {
                    "internalType": "uint256",
                    "name": "randomness",
                    "type": "uint256"
                }
            ],
            "name": "rawFulfillRandomness",
            "outputs": [],
            "stateMutability": "nonpayable",
            "type": "function"
        },
        {
            "inputs": [],
            "name": "renounceOwnership",
            "outputs": [],
            "stateMutability": "nonpayable",
            "type": "function"
        },
        {
            "inputs": [
                {
                    "internalType": "bytes32",
                    "name": "",
                    "type": "bytes32"
                }
            ],
            "name": "requestIdToSender",
            "outputs": [
                {
                    "internalType": "address",
                    "name": "",
                    "type": "address"
                }
            ],
            "stateMutability": "view",
            "type": "function"
        },
        {
            "inputs": [],
            "name": "resetWaves",
            "outputs": [],
            "stateMutability": "nonpayable",
            "type": "function"
        },
        {
            "inputs": [
                {
                    "internalType": "address",
                    "name": "newOwner",
                    "type": "address"
                }
            ],
            "name": "transferOwnership",
            "outputs": [],
            "stateMutability": "nonpayable",
            "type": "function"
        }
    ],
    "bytecode": "0x60c0604052604051620023d0380380620023d08339818101604052810190620000299190620002fd565b83838173ffffffffffffffffffffffffffffffffffffffff1660a08173ffffffffffffffffffffffffffffffffffffffff1660601b815250508073ffffffffffffffffffffffffffffffffffffffff1660808173ffffffffffffffffffffffffffffffffffffffff1660601b815250505050620000bb620000af6200011e60201b60201c565b6200012660201b60201c565b620001066040518060400160405280601981526020017f57652068617665206265656e20636f6e73747275637465642100000000000000815250620001ec60201b620009981760201c565b816003819055508060048190555050505050620004c7565b600033905090565b6000600160009054906101000a900473ffffffffffffffffffffffffffffffffffffffff16905081600160006101000a81548173ffffffffffffffffffffffffffffffffffffffff021916908373ffffffffffffffffffffffffffffffffffffffff1602179055508173ffffffffffffffffffffffffffffffffffffffff168173ffffffffffffffffffffffffffffffffffffffff167f8be0079c531659141344cd1fd0a4f28419497f9722a3daafe3b4186f6b6457e060405160405180910390a35050565b6200028c81604051602401620002039190620003aa565b6040516020818303038152906040527f41304fac000000000000000000000000000000000000000000000000000000007bffffffffffffffffffffffffffffffffffffffffffffffffffffffff19166020820180517bffffffffffffffffffffffffffffffffffffffffffffffffffffffff83818316178352505050506200028f60201b60201c565b50565b60008151905060006a636f6e736f6c652e6c6f679050602083016000808483855afa5050505050565b600081519050620002c98162000479565b92915050565b600081519050620002e08162000493565b92915050565b600081519050620002f781620004ad565b92915050565b600080600080608085870312156200031457600080fd5b60006200032487828801620002b8565b94505060206200033787828801620002b8565b93505060406200034a87828801620002cf565b92505060606200035d87828801620002e6565b91505092959194509250565b60006200037682620003ce565b620003828185620003d9565b93506200039481856020860162000432565b6200039f8162000468565b840191505092915050565b60006020820190508181036000830152620003c6818462000369565b905092915050565b600081519050919050565b600082825260208201905092915050565b6000620003f78262000408565b9050919050565b6000819050919050565b600073ffffffffffffffffffffffffffffffffffffffff82169050919050565b6000819050919050565b60005b838110156200045257808201518184015260208101905062000435565b8381111562000462576000848401525b50505050565b6000601f19601f8301169050919050565b6200048481620003ea565b81146200049057600080fd5b50565b6200049e81620003fe565b8114620004aa57600080fd5b50565b620004b88162000428565b8114620004c457600080fd5b50565b60805160601c60a05160601c611ecf620005016000396000818161042f0152610c710152600081816106430152610c350152611ecf6000f3fe608060405234801561001057600080fd5b50600436106100a95760003560e01c806394985ddd1161007157806394985ddd146101405780639a2cdc081461015c578063a42a46631461017a578063bd43a908146101aa578063c369c22f146101c8578063f2fde38b146101f8576100a9565b806312371706146100ae578063219c0eee146100de5780633f0402141461010e578063715018a6146101185780638da5cb5b14610122575b600080fd5b6100c860048036038101906100c391906112e2565b610214565b6040516100d591906119c6565b60405180910390f35b6100f860048036038101906100f39190611334565b6102b4565b60405161010591906118c2565b60405180910390f35b6101166102e7565b005b61012061037b565b005b61012a610403565b60405161013791906118c2565b60405180910390f35b61015a6004803603810190610155919061135d565b61042d565b005b6101646104c9565b6040516101719190611ac8565b60405180910390f35b610194600480360381019061018f91906112e2565b6104d3565b6040516101a19190611ac8565b60405180910390f35b6101b26104eb565b6040516101bf919061191b565b60405180910390f35b6101e260048036038101906101dd9190611399565b61063c565b6040516101ef919061193d565b60405180910390f35b610212600480360381019061020d91906112e2565b6108a0565b005b6007602052806000526040600020600091509050805461023390611cf9565b80601f016020809104026020016040519081016040528092919081815260200182805461025f90611cf9565b80156102ac5780601f10610281576101008083540402835291602001916102ac565b820191906000526020600020905b81548152906001019060200180831161028f57829003601f168201915b505050505081565b60086020528060005260406000206000915054906101000a900473ffffffffffffffffffffffffffffffffffffffff1681565b6102ef610a31565b73ffffffffffffffffffffffffffffffffffffffff1661030d610403565b73ffffffffffffffffffffffffffffffffffffffff1614610363576040517f08c379a000000000000000000000000000000000000000000000000000000000815260040161035a90611a48565b60405180910390fd5b6005600061037191906110b4565b6000600281905550565b610383610a31565b73ffffffffffffffffffffffffffffffffffffffff166103a1610403565b73ffffffffffffffffffffffffffffffffffffffff16146103f7576040517f08c379a00000000000000000000000000000000000000000000000000000000081526004016103ee90611a48565b60405180910390fd5b6104016000610a39565b565b6000600160009054906101000a900473ffffffffffffffffffffffffffffffffffffffff16905090565b7f000000000000000000000000000000000000000000000000000000000000000073ffffffffffffffffffffffffffffffffffffffff163373ffffffffffffffffffffffffffffffffffffffff16146104bb576040517f08c379a00000000000000000000000000000000000000000000000000000000081526004016104b290611a68565b60405180910390fd5b6104c58282610aff565b5050565b6000600254905090565b60066020528060005260406000206000915090505481565b60606005805480602002602001604051908101604052809291908181526020016000905b8282101561063357838290600052602060002090600302016040518060600160405290816000820160009054906101000a900473ffffffffffffffffffffffffffffffffffffffff1673ffffffffffffffffffffffffffffffffffffffff1673ffffffffffffffffffffffffffffffffffffffff16815260200160018201805461059890611cf9565b80601f01602080910402602001604051908101604052809291908181526020018280546105c490611cf9565b80156106115780601f106105e657610100808354040283529160200191610611565b820191906000526020600020905b8154815290600101906020018083116105f457829003601f168201915b505050505081526020016002820154815250508152602001906001019061050f565b50505050905090565b60006004547f000000000000000000000000000000000000000000000000000000000000000073ffffffffffffffffffffffffffffffffffffffff166370a08231306040518263ffffffff1660e01b815260040161069a91906118c2565b60206040518083038186803b1580156106b257600080fd5b505afa1580156106c6573d6000803e3d6000fd5b505050506040513d601f19601f820116820180604052508101906106ea91906113da565b101561072b576040517f08c379a000000000000000000000000000000000000000000000000000000000815260040161072290611a08565b60405180910390fd5b426078600660003373ffffffffffffffffffffffffffffffffffffffff1673ffffffffffffffffffffffffffffffffffffffff168152602001908152602001600020546107789190611c0f565b106107b8576040517f08c379a00000000000000000000000000000000000000000000000000000000081526004016107af90611aa8565b60405180910390fd5b6107c6600354600454610c31565b9050336008600083815260200190815260200160002060006101000a81548173ffffffffffffffffffffffffffffffffffffffff021916908373ffffffffffffffffffffffffffffffffffffffff16021790555081600760003373ffffffffffffffffffffffffffffffffffffffff1673ffffffffffffffffffffffffffffffffffffffff168152602001908152602001600020908051906020019061086d9291906110d8565b50807f1f528edfe7e851f18127c23c0853d428822bcefe59219e6afb0c6f25ffe9d51060405160405180910390a2919050565b6108a8610a31565b73ffffffffffffffffffffffffffffffffffffffff166108c6610403565b73ffffffffffffffffffffffffffffffffffffffff161461091c576040517f08c379a000000000000000000000000000000000000000000000000000000000815260040161091390611a48565b60405180910390fd5b600073ffffffffffffffffffffffffffffffffffffffff168173ffffffffffffffffffffffffffffffffffffffff16141561098c576040517f08c379a0000000000000000000000000000000000000000000000000000000008152600401610983906119e8565b60405180910390fd5b61099581610a39565b50565b610a2e816040516024016109ac91906119c6565b6040516020818303038152906040527f41304fac000000000000000000000000000000000000000000000000000000007bffffffffffffffffffffffffffffffffffffffffffffffffffffffff19166020820180517bffffffffffffffffffffffffffffffffffffffffffffffffffffffff8381831617835250505050610d90565b50565b600033905090565b6000600160009054906101000a900473ffffffffffffffffffffffffffffffffffffffff16905081600160006101000a81548173ffffffffffffffffffffffffffffffffffffffff021916908373ffffffffffffffffffffffffffffffffffffffff1602179055508173ffffffffffffffffffffffffffffffffffffffff168173ffffffffffffffffffffffffffffffffffffffff167f8be0079c531659141344cd1fd0a4f28419497f9722a3daafe3b4186f6b6457e060405160405180910390a35050565b60006001606483610b109190611d3f565b610b1a9190611c0f565b905060006008600085815260200190815260200160002060009054906101000a900473ffffffffffffffffffffffffffffffffffffffff1690506000600760008373ffffffffffffffffffffffffffffffffffffffff1673ffffffffffffffffffffffffffffffffffffffff1681526020019081526020016000208054610ba090611cf9565b80601f0160208091040260200160405190810160405280929190818152602001828054610bcc90611cf9565b8015610c195780601f10610bee57610100808354040283529160200191610c19565b820191906000526020600020905b815481529060010190602001808311610bfc57829003601f168201915b50505050509050610c2a8184610db9565b5050505050565b60007f000000000000000000000000000000000000000000000000000000000000000073ffffffffffffffffffffffffffffffffffffffff16634000aea07f000000000000000000000000000000000000000000000000000000000000000084866000604051602001610ca5929190611958565b6040516020818303038152906040526040518463ffffffff1660e01b8152600401610cd2939291906118dd565b602060405180830381600087803b158015610cec57600080fd5b505af1158015610d00573d6000803e3d6000fd5b505050506040513d601f19601f82011682018060405250810190610d24919061130b565b506000610d468460003060008089815260200190815260200160002054611045565b9050600160008086815260200190815260200160002054610d679190611c0f565b60008086815260200190815260200160002081905550610d878482611081565b91505092915050565b60008151905060006a636f6e736f6c652e6c6f679050602083016000808483855afa5050505050565b42600660003373ffffffffffffffffffffffffffffffffffffffff1673ffffffffffffffffffffffffffffffffffffffff16815260200190815260200160002081905550600160026000828254610e109190611c0f565b92505081905550600560405180606001604052803373ffffffffffffffffffffffffffffffffffffffff16815260200184815260200142815250908060018154018082558091505060019003906000526020600020906003020160009091909190915060008201518160000160006101000a81548173ffffffffffffffffffffffffffffffffffffffff021916908373ffffffffffffffffffffffffffffffffffffffff1602179055506020820151816001019080519060200190610ed69291906110d8565b50604082015181600201555050600060328211610fee576000655af3107a4000905047811115610f3b576040517f08c379a0000000000000000000000000000000000000000000000000000000008152600401610f3290611a88565b60405180910390fd5b60003373ffffffffffffffffffffffffffffffffffffffff1682604051610f61906118ad565b60006040518083038185875af1925050503d8060008114610f9e576040519150601f19603f3d011682016040523d82523d6000602084013e610fa3565b606091505b5050905080610fe7576040517f08c379a0000000000000000000000000000000000000000000000000000000008152600401610fde90611a28565b60405180910390fd5b6001925050505b3373ffffffffffffffffffffffffffffffffffffffff167f6d1607feb02544462392cd79bc9fc3cea2a1dd50600d5b503009b84ae27748ca42858460405161103893929190611ae3565b60405180910390a2505050565b60008484848460405160200161105e9493929190611981565b6040516020818303038152906040528051906020012060001c9050949350505050565b60008282604051602001611096929190611881565b60405160208183030381529060405280519060200120905092915050565b50805460008255600302906000526020600020908101906110d5919061115e565b50565b8280546110e490611cf9565b90600052602060002090601f016020900481019282611106576000855561114d565b82601f1061111f57805160ff191683800117855561114d565b8280016001018555821561114d579182015b8281111561114c578251825591602001919060010190611131565b5b50905061115a91906111b4565b5090565b5b808211156111b057600080820160006101000a81549073ffffffffffffffffffffffffffffffffffffffff021916905560018201600061119f91906111d1565b60028201600090555060030161115f565b5090565b5b808211156111cd5760008160009055506001016111b5565b5090565b5080546111dd90611cf9565b6000825580601f106111ef575061120e565b601f01602090049060005260206000209081019061120d91906111b4565b5b50565b600061122461121f84611b52565b611b21565b90508281526020810184848401111561123c57600080fd5b611247848285611cb7565b509392505050565b60008135905061125e81611e3d565b92915050565b60008151905061127381611e54565b92915050565b60008135905061128881611e6b565b92915050565b600082601f83011261129f57600080fd5b81356112af848260208601611211565b91505092915050565b6000813590506112c781611e82565b92915050565b6000815190506112dc81611e82565b92915050565b6000602082840312156112f457600080fd5b60006113028482850161124f565b91505092915050565b60006020828403121561131d57600080fd5b600061132b84828501611264565b91505092915050565b60006020828403121561134657600080fd5b600061135484828501611279565b91505092915050565b6000806040838503121561137057600080fd5b600061137e85828601611279565b925050602061138f858286016112b8565b9150509250929050565b6000602082840312156113ab57600080fd5b600082013567ffffffffffffffff8111156113c557600080fd5b6113d18482850161128e565b91505092915050565b6000602082840312156113ec57600080fd5b60006113fa848285016112cd565b91505092915050565b600061140f83836117fc565b905092915050565b61142081611c65565b82525050565b61142f81611c65565b82525050565b600061144082611b92565b61144a8185611bc0565b93508360208202850161145c85611b82565b8060005b8581101561149857848403895281516114798582611403565b945061148483611bb3565b925060208a01995050600181019050611460565b50829750879550505050505092915050565b6114b381611c77565b82525050565b6114c281611c83565b82525050565b6114d96114d482611c83565b611d2b565b82525050565b60006114ea82611b9d565b6114f48185611bd1565b9350611504818560208601611cc6565b61150d81611e2c565b840191505092915050565b600061152382611ba8565b61152d8185611bed565b935061153d818560208601611cc6565b61154681611e2c565b840191505092915050565b600061155c82611ba8565b6115668185611bfe565b9350611576818560208601611cc6565b61157f81611e2c565b840191505092915050565b6000611597602683611bfe565b91507f4f776e61626c653a206e6577206f776e657220697320746865207a65726f206160008301527f64647265737300000000000000000000000000000000000000000000000000006020830152604082019050919050565b60006115fd602b83611bfe565b91507f4e6f7420656e6f756768204c494e4b202d2066696c6c20636f6e74726163742060008301527f77697468206661756365740000000000000000000000000000000000000000006020830152604082019050919050565b6000611663602783611bfe565b91507f4661696c656420746f207769746864726177206d6f6e65792066726f6d20636f60008301527f6e74726163742e000000000000000000000000000000000000000000000000006020830152604082019050919050565b60006116c9602083611bfe565b91507f4f776e61626c653a2063616c6c6572206973206e6f7420746865206f776e65726000830152602082019050919050565b6000611709601f83611bfe565b91507f4f6e6c7920565246436f6f7264696e61746f722063616e2066756c66696c6c006000830152602082019050919050565b6000611749603583611bfe565b91507f547279696e6720746f207769746864726177206d6f7265206d6f6e657920746860008301527f616e207468657920636f6e7472616374206861732e00000000000000000000006020830152604082019050919050565b60006117af600083611be2565b9150600082019050919050565b60006117c9600e83611bfe565b91507f576169742032206d696e757465730000000000000000000000000000000000006000830152602082019050919050565b60006060830160008301516118146000860182611417565b506020830151848203602086015261182c8282611518565b9150506040830151611841604086018261184c565b508091505092915050565b61185581611cad565b82525050565b61186481611cad565b82525050565b61187b61187682611cad565b611d35565b82525050565b600061188d82856114c8565b60208201915061189d828461186a565b6020820191508190509392505050565b60006118b8826117a2565b9150819050919050565b60006020820190506118d76000830184611426565b92915050565b60006060820190506118f26000830186611426565b6118ff602083018561185b565b818103604083015261191181846114df565b9050949350505050565b600060208201905081810360008301526119358184611435565b905092915050565b600060208201905061195260008301846114b9565b92915050565b600060408201905061196d60008301856114b9565b61197a602083018461185b565b9392505050565b600060808201905061199660008301876114b9565b6119a3602083018661185b565b6119b06040830185611426565b6119bd606083018461185b565b95945050505050565b600060208201905081810360008301526119e08184611551565b905092915050565b60006020820190508181036000830152611a018161158a565b9050919050565b60006020820190508181036000830152611a21816115f0565b9050919050565b60006020820190508181036000830152611a4181611656565b9050919050565b60006020820190508181036000830152611a61816116bc565b9050919050565b60006020820190508181036000830152611a81816116fc565b9050919050565b60006020820190508181036000830152611aa18161173c565b9050919050565b60006020820190508181036000830152611ac1816117bc565b9050919050565b6000602082019050611add600083018461185b565b92915050565b6000606082019050611af8600083018661185b565b8181036020830152611b0a8185611551565b9050611b1960408301846114aa565b949350505050565b6000604051905081810181811067ffffffffffffffff82111715611b4857611b47611dfd565b5b8060405250919050565b600067ffffffffffffffff821115611b6d57611b6c611dfd565b5b601f19601f8301169050602081019050919050565b6000819050602082019050919050565b600081519050919050565b600081519050919050565b600081519050919050565b6000602082019050919050565b600082825260208201905092915050565b600082825260208201905092915050565b600081905092915050565b600082825260208201905092915050565b600082825260208201905092915050565b6000611c1a82611cad565b9150611c2583611cad565b9250827fffffffffffffffffffffffffffffffffffffffffffffffffffffffffffffffff03821115611c5a57611c59611d70565b5b828201905092915050565b6000611c7082611c8d565b9050919050565b60008115159050919050565b6000819050919050565b600073ffffffffffffffffffffffffffffffffffffffff82169050919050565b6000819050919050565b82818337600083830152505050565b60005b83811015611ce4578082015181840152602081019050611cc9565b83811115611cf3576000848401525b50505050565b60006002820490506001821680611d1157607f821691505b60208210811415611d2557611d24611dce565b5b50919050565b6000819050919050565b6000819050919050565b6000611d4a82611cad565b9150611d5583611cad565b925082611d6557611d64611d9f565b5b828206905092915050565b7f4e487b7100000000000000000000000000000000000000000000000000000000600052601160045260246000fd5b7f4e487b7100000000000000000000000000000000000000000000000000000000600052601260045260246000fd5b7f4e487b7100000000000000000000000000000000000000000000000000000000600052602260045260246000fd5b7f4e487b7100000000000000000000000000000000000000000000000000000000600052604160045260246000fd5b6000601f19601f8301169050919050565b611e4681611c65565b8114611e5157600080fd5b50565b611e5d81611c77565b8114611e6857600080fd5b50565b611e7481611c83565b8114611e7f57600080fd5b50565b611e8b81611cad565b8114611e9657600080fd5b5056fea264697066735822122061d7193c1bd303aff8c67c2dfaec7bc81096456483485dc8188818a1b611688064736f6c63430008000033",
    "linkReferences": {},
    "deployedLinkReferences": {}
}